{
  "transactions": [
    {
      "hash": "0x73317476e083597c66e5b4ec1f8d674aa1b8aede086ddb85d5b0268836b2d0ef",
      "transactionType": "CALL",
      "contractName": "LinkToken",
      "contractAddress": "0x779877a7b0d9e8603169ddbd7836e478b4624789",
      "function": "transferAndCall(address,uint256,bytes)",
      "arguments": [
        "0x9DdfaCa8183c41ad55329BdeeD9F6A8d53168B1B",
        "10000000000000000000",
        "0x5e16e5060962ffec0464b18d03aa84b01193943eb5257f8c48c6411f6eb4a2eb"
      ],
      "transaction": {
        "from": "0xf192366dfc5b405c14791ed0b228295b7bac4810",
        "to": "0x779877a7b0d9e8603169ddbd7836e478b4624789",
        "gas": "0x14cbb",
        "value": "0x0",
        "input": "0x4000aea00000000000000000000000009ddfaca8183c41ad55329bdeed9f6a8d53168b1b0000000000000000000000000000000000000000000000008ac7230489e80000000000000000000000000000000000000000000000000000000000000000006000000000000000000000000000000000000000000000000000000000000000205e16e5060962ffec0464b18d03aa84b01193943eb5257f8c48c6411f6eb4a2eb",
        "nonce": "0x20",
        "chainId": "0xaa36a7"
      },
      "additionalContracts": [],
      "isFixedGasLimit": false
    }
  ],
  "receipts": [
    {
      "status": "0x1",
      "cumulativeGasUsed": "0x3d8351",
      "logs": [
        {
          "address": "0x779877a7b0d9e8603169ddbd7836e478b4624789",
          "topics": [
            "0xddf252ad1be2c89b69c2b068fc378daa952ba7f163c4a11628f55a4df523b3ef",
            "0x000000000000000000000000f192366dfc5b405c14791ed0b228295b7bac4810",
            "0x0000000000000000000000009ddfaca8183c41ad55329bdeed9f6a8d53168b1b"
          ],
          "data": "0x0000000000000000000000000000000000000000000000008ac7230489e80000",
          "blockHash": "0xdd226b5ae0e2db6335060bb010a4d557239f406dbac9fcaf6cfc3105fe3465da",
          "blockNumber": "0x6735e1",
          "transactionHash": "0x73317476e083597c66e5b4ec1f8d674aa1b8aede086ddb85d5b0268836b2d0ef",
          "transactionIndex": "0x1e",
          "logIndex": "0x44",
          "removed": false
        },
        {
          "address": "0x779877a7b0d9e8603169ddbd7836e478b4624789",
          "topics": [
            "0xe19260aff97b920c7df27010903aeb9c8d2be5d310a2c67824cf3f15396e4c16",
            "0x000000000000000000000000f192366dfc5b405c14791ed0b228295b7bac4810",
            "0x0000000000000000000000009ddfaca8183c41ad55329bdeed9f6a8d53168b1b"
          ],
          "data": "0x0000000000000000000000000000000000000000000000008ac7230489e80000000000000000000000000000000000000000000000000000000000000000004000000000000000000000000000000000000000000000000000000000000000205e16e5060962ffec0464b18d03aa84b01193943eb5257f8c48c6411f6eb4a2eb",
          "blockHash": "0xdd226b5ae0e2db6335060bb010a4d557239f406dbac9fcaf6cfc3105fe3465da",
          "blockNumber": "0x6735e1",
          "transactionHash": "0x73317476e083597c66e5b4ec1f8d674aa1b8aede086ddb85d5b0268836b2d0ef",
          "transactionIndex": "0x1e",
          "logIndex": "0x45",
          "removed": false
        },
        {
          "address": "0x9ddfaca8183c41ad55329bdeed9f6a8d53168b1b",
          "topics": [
            "0x1ced9348ff549fceab2ac57cd3a9de38edaaab274b725ee82c23e8fc8c4eec7a",
            "0x5e16e5060962ffec0464b18d03aa84b01193943eb5257f8c48c6411f6eb4a2eb"
          ],
          "data": "0x00000000000000000000000000000000000000000000000053444835ec580000000000000000000000000000000000000000000000000000de0b6b3a76400000",
          "blockHash": "0xdd226b5ae0e2db6335060bb010a4d557239f406dbac9fcaf6cfc3105fe3465da",
          "blockNumber": "0x6735e1",
          "transactionHash": "0x73317476e083597c66e5b4ec1f8d674aa1b8aede086ddb85d5b0268836b2d0ef",
          "transactionIndex": "0x1e",
          "logIndex": "0x46",
          "removed": false
        }
      ],
      "logsBloom": "0x00000004000000000200000000000000000000000020000000000000020000000000008000000000000000000000000000000000000000000000000000000000800000000000000000000008000000000000000000000000000020000020000008000000000000000000000000000000000000000000000000000010000041000000000000000000040000010000800000000020000000000000000000000000000000000000000080000000010000000000000000000000000004000000000000000002000000000000000000000000000000000000000100000000000000000010000000000000800000000000000000000000000000000000000000000000",
      "type": "0x2",
      "transactionHash": "0x73317476e083597c66e5b4ec1f8d674aa1b8aede086ddb85d5b0268836b2d0ef",
      "transactionIndex": "0x1e",
      "blockHash": "0xdd226b5ae0e2db6335060bb010a4d557239f406dbac9fcaf6cfc3105fe3465da",
      "blockNumber": "0x6735e1",
      "gasUsed": "0xf0e5",
      "effectiveGasPrice": "0x269365e844",
      "from": "0xf192366dfc5b405c14791ed0b228295b7bac4810",
      "to": "0x779877a7b0d9e8603169ddbd7836e478b4624789",
      "contractAddress": null
    }
  ],
  "libraries": [],
  "pending": [],
  "returns": {},
  "timestamp": 1727366775,
  "chain": 11155111,
  "commit": "9d81558"
}